{
  "_format": "hh-sol-artifact-1",
  "contractName": "Counter",
  "sourceName": "contracts/Wallet/Counter.sol",
  "abi": [
    {
      "inputs": [],
      "stateMutability": "nonpayable",
      "type": "constructor"
    },
    {
      "inputs": [],
      "name": "getCounter",
      "outputs": [
        {
          "internalType": "uint256",
          "name": "",
          "type": "uint256"
        }
      ],
      "stateMutability": "view",
      "type": "function"
    },
    {
      "inputs": [],
      "name": "incrementCounter",
      "outputs": [],
      "stateMutability": "nonpayable",
      "type": "function"
    }
  ],
  "bytecode": "0x608060405234801561001057600080fd5b50600a600081905550610172806100286000396000f3fe608060405234801561001057600080fd5b50600436106100365760003560e01c80635b34b9661461003b5780638ada066e14610045575b600080fd5b610043610063565b005b61004d61007a565b60405161005a9190610092565b60405180910390f35b600160005461007291906100ad565b600081905550565b60008054905090565b61008c81610103565b82525050565b60006020820190506100a76000830184610083565b92915050565b60006100b882610103565b91506100c383610103565b9250827fffffffffffffffffffffffffffffffffffffffffffffffffffffffffffffffff038211156100f8576100f761010d565b5b828201905092915050565b6000819050919050565b7f4e487b7100000000000000000000000000000000000000000000000000000000600052601160045260246000fdfea2646970667358221220c421918706f9c794915937026544d53bf633f182a6cfc6834f0134185ee2ac9764736f6c63430008040033",
  "linkReferences": {},
  "deployedLinkReferences": {}
}